:0300000002000EED
:0C000E00787FE4F6D8FD75817002005583
:10009A001D080C040C041304130415041504130896
:1000AA0011041104100410040E040E040C08FF209D
:1000BA004826F921F980F9E1FA36FA8CFAD8FB23B5
:1000CA00FB68FBAAFBE9FC23FC5FFC8FFCC0FCEF8E
:1000DA00FD1BFD45FD63FD91FDB4FDD5FDF4FE124A
:1000EA00FE2EFE47FE60FE78FE8EFEA2FEB6FEC91A
:0A00FA00FEDAFEEBFEFAFF09FF1725
:100166001201F474082525F8E6F4602BAF25052561
:1001760074082FF8E6F56FAF25052574082FF8E605
:1001860075F07DA4FFAEF012020BC28C7F057E00D7
:0B01960012020BD28C80CCC28C80FEC9
:03000B000201A14E
:1001A100C0E0C0D075D000C000C004C005C007E5E4
:1001B1006F25E02426F8E6FC08E6FDECF58CAF059A
:1001C1008F8AB295D007D005D004D000D0D0D0E02E
:0101D10032FB
:10020B00EF4E600F7D027CC7DCFEDDFCEF1F70F054
:03021B001E80ED55
:01021E0022BD
:10010500E4F57020B1137F14FE12020B30B1FD7FB0
:10011500147E0012020B75700120B0147F147E004E
:1001250012020B30B0FD7F147E0012020B757002B7
:1001350020B2147F147E0012020B30B2FD7F147EB4
:100145000012020B75700320B3147F147E00120297
:100155000B30B3FD7F147E0012020B757004AF7077
:010165002277
:040003007FE3DFFEBA
:0100070022D6
:0401D200AD07AC06C3
:1001D600E4FBFAED25E0FFEC33FEC3EB9FEA9E500D
:0D01E6000CB2951200030BBB00010A80E66D
:0101F30022E9
:1001F4005389F0438901C28DD28C758CFC758A6653
:07020400D2A9D2AFC2B9225A
:10001A00020166E493A3F8E493A34003F68001F295
:10002A0008DFF48029E493A3F85407240CC8C333E7
:10003A00C4540F4420C8834004F456800146F6DFB6
:10004A00E4800B010204081020408090009AE47EAC
:10005A00019360BCA3FF543F30E509541FFEE493AB
:10006A00A360010ECF54C025E060A840B8E493A372
:10007A00FAE493A3F8E493A3C8C582C8CAC583CA9D
:10008A00F0A3C8C582C8CAC583CADFE9DEE780BE55
:0101040000FA
:00000001FF
