:0300000002046C8B
:0C046C00787FE4F6D8FD7581240203F1CE
:1003F10012040912044912048C3090FDD28C209011
:08040100FDC28C12026A80EEBC
:10043500EF4E600F7D027CC7DCFEDDFCEF1F70F028
:030445001E80ED29
:010448002291
:100409005389F0438901C28DC28CE4F58CF58AD2F7
:06041900A9D2AFC2B92216
:06045D00C2A58F80D2A7AA
:080463007F027EC7DEFEDFFC14
:01046B00226E
:0A047800C2A612045DC2A7020463CD
:1003B600CFCDCFCECCCE1202077C007D0A1202072B
:0403C600ED2430FFF3
:0A03CA00D2A612045DC2A70204636C
:10041F00AE07BE0104ED148006BE0209ED243F4471
:06042F0080FF1204782298
:100449007F381204787F0C1204787F061204787FB3
:040459000102047820
:0A048200AC0312041FAF040203CA0A
:060393008B228A2389245D
:1003990012041FE4FDAB22AA23A9248D82758300D0
:0C03A9001201C8FF60061203CA0D80E9B3
:0103B5002225
:0C0360007F0AEA24FFFDE434FFFC7E006D
:08036C008E0D8F0E8C0F8D1019
:100374007F017E00E4FBEBC39510E50F6480F87405
:0E0384008098500AAC0DAD0E1201F50B80E80A
:010392002248
:0403D4008A0A8B0BFB
:1003D80012041FAA0CEAD39400400D120360AC0A61
:0803E800AD0B1203B61A80ED03
:0103F00022EA
:1002B50012041FC3EA64809480400B7F2B1203CA8B
:1002C5008A168B17800E7F2D1203CAC3E49BF51780
:1002D500E49AF516AA15EAD39400400D120360AC12
:0902E50016AD171203B61A80EDE4
:0102EE0022ED
:0402EF008A1A8B1BC1
:1002F30012041FAA1CEAD3940040297F1012036240
:10030300AC1AAD1BCFCDCFCECCCE120207EF540F1C
:10031300FEC3940AEE5004243080022437FF1203F4
:04032300CA1A80D1A1
:0103270022B3
:040328008A1F8B207D
:10032C0012041FAA21EAD394004028EA24FFFDE41A
:10033C0034FFFC7F027E0012036CAC1FAD20CFCDCE
:10034C00CFCECCCE120207EF54012430FF1203CAD9
:03035C001A80D232
:01035F00227B
:040494007F02DFFE06
:010498002241
:08048C00D291120494C29122E6
:10026A00AF8CEFFEAD8A7C00E42DFFEC3EFEAD07BD
:10027A00FCE412010E7B8E7AE3798A783F1200033E
:10028A00120147E4F58CF58AAD07AC0612010E7B24
:10029A00967A43798B783C120003120147AB07AA7E
:0B02AA0006750C037D017F010203D4E8
:10000300EC4D6011E8497017ED33EC3304600DE4F7
:10001300FCFFFEFD22E933E8330470F80201B3125A
:10002300017E58046009E4CC24815006285009025B
:1000330001BD2840030201BAC0E0EB4A7044B98015
:1000430006D0E0FB0201A9EF4E701CBD8008EBFF58
:10005300EAFEE9FD80EBE98DF0A4FEE5F00200EC99
:10006300E9CDF9EAFEEBFFEF89F0A4FCE5F0CE89D8
:10007300F0A42EFFE435F0CD89F0A42DFEE435F095
:100083008067EF4E7005BD80D780C3EF8BF0A4ACC3
:10009300F0EE8BF0A42CFCE435F0F8EF8AF0A42CFE
:1000A300E5F038FCE433CB8DF0A42CFCE5F03BF811
:1000B300EE8AF0A42CFCE5F038F8E433CF89F0A401
:1000C3002CFCE5F038CF3400CE89F0A42FFFE5F007
:1000D3003EFEE433C98DF0A42EFEE5F039CD8AF05F
:1000E300A42FFFE5F03EFEE43DFD33D0E0FB5007D7
:1000F3000BBB000F0201BDEC2CFCEF33FFEE33FE14
:06010300ED33FD02019541
:1001090075F020800E75F010800575F0087D007E71
:10011900007F003392D530D50312025CEC334010D6
:10012900EF33FFEE33FEED33FDEC33FCD5F0ED227A
:0E013900E5F0247EA2D513CC92E7CDCEFF22B6
:10014700EDD2E7CD33EC3392D524814006E4FFFEB0
:10015700FDFC22FCE4CFCECDCC24E0501174FF800F
:10016700EDC3CC13CCCD13CDCE13CECF13CF0470AC
:07017700F030D5DE02025C4E
:10017E00E9D2E7C933E833F892D5EDD2E7CD33ECC7
:07018E0033FC5002B2D52240
:10019500EC30E7100FBF000C0EBE00080DBD0004CB
:1001A5000BEB6014A2D5EB13FCED92E7FD2274FF77
:1001B500FCFDFEFF22E480F8A2D574FF13FC7D80D0
:0301C500E480EFE4
:1001C800BB010CE58229F582E5833AF583E02250EC
:1001D80006E92582F8E622BBFE06E92582F8E22236
:0D01E800E58229F582E5833AF583E4932250
:1001F500EF8DF0A4A8F0CF8CF0A428CE8DF0A42E1E
:02020500FE22D7
:10020700BC000BBE0029EF8DF084FFADF022E4CCDB
:10021700F875F008EF2FFFEE33FEEC33FCEE9DECA4
:10022700984005FCEE9DFE0FD5F0E9E4CEFD22EDEA
:10023700F8F5F0EE8420D21CFEADF075F008EF2F34
:10024700FFED33FD4007985006D5F0F222C398FD25
:050257000FD5F0EA22C2
:0E025C00C3E49FFFE49EFEE49DFDE49CFC22B3
:00000001FF
