:030000000205B93D
:0C05B900787FE4F6D8FD7581340206005E
:0D07E70050617373776F72643A004F4B00DE
:100781000610303030303000060A31303038360053
:0807910002080001021700003C
:10023200751900751A011207C47BFF7A0779E77DE9
:10024200017F01120723751F01E4FBFA7D017F0282
:10025200120764751F01E4FBFA7D027F0212076434
:10026200751F01E4FBFA7D037F02120764751F010B
:10027200E4FBFA7D047F02120764751F01E4FBFAB6
:100282007D057F021207641204308F16E5094508C6
:10029200700302041EE51614B4100040030203E5C5
:1002A2009002B075F003A4C58325F0C583730202E2
:1002B200E00202F802031002032802033302034B96
:1002C20002036302037A02038402039B0203B20263
:1002D20003C90203E50203E50203E50203DFAD1AE7
:1002E200751F017B017A007F02120764740F251AC1
:1002F200F876310203E5AD1A751F017B027A007FA1
:1003020002120764740F251AF876320203E5AD1A59
:10031200751F017B037A007F02120764740F251A8E
:10032200F876330203E5051AE51A7002051902038D
:10033200E5AD1A751F017B047A007F02120764740F
:100342000F251AF876340203E5AD1A751F017B05F5
:100352007A007F02120764740F251AF876350203B9
:10036200E5AD1A751F017B067A007F0212076474DD
:100372000F251AF87636806BE51A151A706515196D
:100382008061AD1A751F017B077A007F0212076434
:10039200740F251AF87637804AAD1A751F017B084B
:1003A2007A007F02120764740F251AF876388033B8
:1003B200AD1A751F017B097A007F02120764740F60
:1003C200251AF87639801CAD1A751F01E4FBFA7FF5
:1003D20002120764740F251AF8763080067517002A
:1003E200751801E51A640645196006E51A45197083
:1003F20006751900751A01E518451770030202897E
:10040200780A7C007D007B007A007910120215EFD9
:100412006003020289F508F5090202891207C47B0A
:0E042200FF7A0779F17D017F0112072380F137
:10043000E4F51B7590FFC2932097137F14FE1207FB
:10044000B03097FD7F147E001207B0751B01209617
:10045000147F147E001207B03096FD7F147E0012C8
:1004600007B0751B052095147F147E001207B0306D
:1004700095FD7F147E001207B0751B092094147F30
:10048000147E001207B03094FD7F147E001207B076
:10049000751B0D7590FFC2922097147F147E001279
:1004A00007B03097FD7F147E001207B0751B022045
:1004B00096147F147E001207B03096FD7F147E00E4
:1004C0001207B0751B062095147F147E001207B02A
:1004D0003095FD7F147E001207B0751B0A2094141E
:1004E0007F147E001207B03094FD7F147E00120747
:1004F000B0751B0E7590FFC2912097147F147E007B
:100500001207B03097FD7F147E001207B0751B03F1
:100510002096147F147E001207B03096FD7F147E63
:10052000001207B0751B072095147F147E00120778
:10053000B03095FD7F147E001207B0751B0B209420
:10054000147F147E001207B03094FD7F147E0012D9
:1005500007B0751B0F7590FFC2902097147F147E13
:10056000001207B03097FD7F147E001207B0751B94
:10057000042096147F147E001207B03096FD7F147D
:100580007E001207B0751B082095147F147E0012A0
:1005900007B03095FD7F147E001207B0751B0C204C
:1005A00094147F147E001207B03094FD7F147E00F7
:0805B0001207B0751B10AF1B10
:0105B8002220
:1007B000EF4E600F7D027CC7DCFEDDFCEF1F70F0AA
:0307C0001E80EDAB
:0107C3002213
:0607D800C2A58F80D2A72C
:0807DE007F027EC7DEFEDFFC96
:0107E60022F0
:0A07F400C2A61207D8C2A70207DE52
:10074600CFCDCFCECCCE1200427C007D0A12004225
:04075600ED2430FF5F
:0A075A00D2A61207D8C2A70207DEDC
:10079A00AE07BE0104ED148006BE0209ED243F44F3
:0607AA0080FF1207F4229B
:1007C4007F381207F47F0C1207F47F061207F47FB8
:0407D400010207F423
:0A07FE00AC0312079AAF0402075A79
:060723008B1B8A1C891DDE
:1007290012079AE4FDAB1BAA1CA91D8D82758300D3
:0C073900120003FF600612075A0D80E951
:010745002291
:0C06F0007F0AEA24FFFDE434FFFC7E00DA
:0806FC008E208F218C228D233A
:100704007F017E00E4FBEBC39523E5226480F8744B
:0E0714008098500AAC20AD211200300B80E816
:0107220022B4
:040764008A1D8B1E41
:1007680012079AAA1FEAD39400400D1206F0AC1D96
:08077800AD1E1207461A80EDC8
:010780002256
:1006450012079AC3EA64809480400B7F2B12075AE5
:100655008A298B2A800E7F2D12075AC3E49BF52A1F
:10066500E49AF529AA28EAD39400400D1206F0ACC5
:0906750029AD2A1207461A80ED96
:01067E002259
:04067F008A2D8B2E07
:1006830012079AAA2FEAD3940040297F101206F288
:10069300AC2DAD2ECFCDCFCECCCE120042EF540F2A
:1006A300FEC3940AEE5004243080022437FF12075D
:0406B3005A1A80D17E
:0106B7002220
:0406B8008A328B33C4
:1006BC0012079AAA34EAD394004028EA24FFFDE4F6
:1006CC0034FFFC7F027E001206FCAC32AD33CFCD82
:1006DC00CFCECCCE120042EF54012430FF12075A79
:0306EC001A80D29F
:0106EF0022E8
:1005C500020232E493A3F8E493A34003F68001F218
:1005D50008DFF48029E493A3F85407240CC8C33337
:1005E500C4540F4420C8834004F456800146F6DF06
:1005F500E4800B0102040810204080900781E47E0E
:10060500019360BCA3FF543F30E509541FFEE493FA
:10061500A360010ECF54C025E060A840B8E493A3C1
:10062500FAE493A3F8E493A3C8C582C8CAC583CAEC
:10063500F0A3C8C582C8CAC583CADFE9DEE780BEA4
:01079900005F
:10000300BB010CE58229F582E5833AF583E02250B2
:1000130006E92582F8E622BBFE06E92582F8E222FC
:0D002300E58229F582E5833AF583E4932216
:10003000EF8DF0A4A8F0CF8CF0A428CE8DF0A42EE4
:02004000FE229E
:10004200BC000BBE0029EF8DF084FFADF022E4CCA2
:10005200F875F008EF2FFFEE33FEEC33FCEE9DEC6B
:10006200984005FCEE9DFE0FD5F0E9E4CEFD22EDB1
:10007200F8F5F0EE8420D21CFEADF075F008EF2FFB
:10008200FFED33FD4007985006D5F0F222C398FDEC
:050092000FD5F0EA2289
:10009700E3F5F009E208B5F06D606B80F3E3F5F086
:1000A70009E608B5F060605E80F387F009E608B5F9
:1000B700F054605280F487F009E208B5F0486046D2
:1000C70080F488828C8387F009E0A3B5F038603626
:1000D70080F488828C8387F009E493A3B5F02760C6
:1000E7002580F388828C83E3F5F009E0A3B5F01649
:1000F700601480F388828C83E3F5F009E493A3B559
:10010700F004600280F20201C2808580E7808E8061
:10011700D2803C8015806C807E809B80B5808B80F0
:10012700A1804F8070803A0201CE89828A83ECFADF
:10013700E493F5F0A3C8C582C8CCC583CCE493A3E8
:10014700C8C582C8CCC583CCB5F070606E80E18924
:10015700828A83E493F5F0A3E208B5F05E605C80E1
:10016700F289828A83E0F5F0A3E608B5F04D604B8B
:1001770080F389828A83E0F5F0A3E208B5F03C605A
:100187003A80F389828A83E493F5F0A3E608B5F011
:100197002A602880F2805389828A83ECFAE493F5F7
:1001A700F0A3C8C582C8CCC583CCE0A3C8C582C8A4
:1001B700CCC583CCB5F004600280E27FFFB5F002C6
:1001C7000F2240027F012289828A83ECFAE0F5F050
:1001D700A3C8C582C8CCC583CCE0A3C8C582C8CC98
:1001E700C583CCB5F0D560D380E389828A83ECFAE6
:1001F700E0F5F0A3C8C582C8CCC583CCE493A3C8F7
:10020700C582C8CCC583CCB5F0B160AF80E288F0B9
:10021700ED2402B4040050A3F582EB2402B40400D9
:0B02270050992323458223900110739F
:00000001FF
