:030000000209D220
:0C09D200787FE4F6D8FD758127020462EE
:10090100543A0054483A00544C3A004F563A480081
:0A0911004F563A4C00202020200031
:100462001209C57FE87E03120990E4FF1207BD8FCF
:10047200127F011207BD8F0CD3E512648094FD50E8
:1004820016C3E50C64809449400DD3E50C6480F8F2
:10049200E5126480985006751219750C1212097CC7
:1004A2007BFF7A0979017D017F011208667BFF7A61
:1004B2000979047D017F021208667BFF7A097908B7
:1004C2007D097F02120866E512FB3395E0FA751783
:1004D200037D047F021206DFE50CFB3395E0FA751B
:1004E20017037D0C7F021206DF12067E8F1112099E
:1004F200C51207ED8F108E0F8D0E8C0DE4FFFEFDE1
:10050200FCAB10AA0FA90EA80D1201A9501E7B2D3B
:100512007D037F011209F4AF10AE0FAD0EAC0D12C8
:1005220002228F0B8E0A8D098C0880157B2B7D038E
:100532007F011209F485100B850F0A850E09850DBE
:1005420008AF0BAE0AAD09AC08120271AB07AA06DE
:100552007517037D047F011208C77B2E7D077F017B
:100562001209F47F007E407D1C7C46AB0BAA0AA9CF
:1005720009A808120003120271E47B107A27F9F825
:100582001203C27517047D087F011208C7E51170B6
:100592000302062EB4010E0512D3E512648094FD07
:1005A200400375127DE511B402111512D3E50C64F6
:1005B20080F8E51264809850020512E511B4031127
:1005C200050CC3E5126480F8E50C648098400215BE
:1005D2000CE511B4040E150CC3E50C64809449506B
:1005E20003750CC9E512FB3395E0FA7517037D0418
:1005F2007F021206DFE50CFB3395E0FA7517037DE7
:100602000C7F021206DFE512FD3395E0FCE4FF12D7
:1006120008427F057E00120990E50CFD3395E0FC4F
:100622007F011208427F057E00120990AC12EC1283
:10063200023DAB10AA0FA90EA80D1201A9600A4033
:10064200087BFF7A09790C8019AC0CEC12023DABE5
:1006520010AA0FA90EA80D1201A950107BFF7A094A
:1006620079117D0D7F011208660204EB7BFF7A0986
:0C06720079167D0D7F011208660204EB72
:0609B600C2A58F80D2A74C
:0809BC007F027EC7DEFEDFFCB6
:0109C4002210
:0A09EA00C2A61209B6C2A70209BC9A
:1008A900CFCDCFCECCCE1203317C007D0A120331DD
:0408B900ED2430FFFB
:0A08BD00D2A61209B6C2A70209BCB8
:10096600AE07BE0104ED148006BE0209ED243F4425
:0609760080FF1209EA22D5
:10097C007F381209EA7F0C1209EA7F061209EA7F16
:04098C00010209EA71
:0A09F400AC03120966AF040208BD4F
:060866008B138A148915B2
:10086C00120966E4FDAB13AA14A9158D82758300D9
:0C087C001202F2FF60061208BD0D80E9B8
:01088800224D
:0C078A007F0AEA24FFFDE434FFFC7E003F
:080796008E1A8F1B8C1C8D1DB7
:10079E007F017E00E4FBEBC3951DE51C6480F874BD
:0E07AE008098500AAC1AAD1B12031F0B80E896
:0107BC00221A
:0408C7008A158B16ED
:1008CB00120966AA17EAD39400400D12078AAC15D9
:0808DB00AD161208A91A80ED08
:0108E30022F2
:1006DF00120966C3EA64809480400B7F2B1208BD19
:1006EF008A188B19800E7F2D1208BDC3E49BF51954
:1006FF00E49AF518AA17EAD39400400D12078AACB2
:09070F0018AD191208A91A80EDB9
:0107180022BE
:040719008A208B2186
:10071D00120966AA22EAD3940040297F1012078C91
:10072D00AC20AD21CFCDCFCECCCE120331EF540FB7
:10073D00FEC3940AEE5004243080022437FF1208C1
:04074D00BD1A80D180
:010751002285
:040752008A258B2643
:10075600120966AA27EAD394004028EA24FFFDE49A
:1007660034FFFC7F027E00120796AC25AD26CFCD66
:10077600CFCECCCE120331EF54012430FF1208BD88
:030786001A80D204
:01078900224D
:10099000EF4E600F7D027CC7DCFEDDFCEF1F70F0C8
:0309A0001E80EDC9
:0109A3002231
:10091B00D2B7C2B77FE3DFFED2B77F19DFFEA2B734
:09092B00E433FE7FE3DFFEAF06BA
:0109340022A0
:1009A400C2B77E03DEFEEF24FF92B77E16DEFED2D0
:0109B400B78B
:0109B500221F
:10094E00C2B77F01DFFED2B77F01DFFEA2B7E4336D
:07095E00FE7F16DFFEAF066D
:01096500226F
:02093500AD070C
:10093700E4FC7401A804088002C333D8FC5DFF12ED
:0609470009A40CBC08EC41
:01094D002287
:1008E400E4FDFC12094EEF600D7401A804088002B7
:0C08F400C333D8FC42050CBC08E9AF057A
:0109000022D4
:0D09C50012091B7FCC1209357F4402093551
:1007ED0012091B7FCC1209357FBE1209351208E4A0
:1007FD008F131208E4EFFEE513FFFDAC06EC1202B9
:0B080D0038E4FBFA7980784112010CFE
:0108180022BD
:100842008F138C148D15120A087FA0120819120931
:10085200DEAF131208191209DEAF151208191209B8
:04086200DE020A1197
:0207BD008F1398
:1007BF00120A087FA01208191209DEAF13120819C6
:1007CF001209DE120A087FA11208191209DE120897
:0D07DF00898F147F011209FE120A11AF1458
:0107EC0022EA
:10067E00E4F51320B1137F14FE12099030B1FD7F03
:10068E00147E0012099075130120B0147F147E00A1
:10069E0012099030B0FD7F147E001209907513027E
:1006AE0020B2147F147E0012099030B2FD7F147EAA
:1006BE000012099075130320B3147F147E001209E3
:1006CE009030B3FD7F147E00120990751304AF13A2
:0106DE0022F9
:090A0800D2A0D2A1C2A0C2A12219
:070A1100C2A0D2A1D2A02275
:02081900AD0729
:10081B00E4FB74807E00A803088006CEA2E713CE0B
:10082B0013D8F8FFEDF582EF558224FF92A0D2A1E9
:06083B00C2A10BBB08DCAA
:010841002294
:10088900E4FFD2A0FED2A130A00D7480A806088092
:0F08990002C313D8FC4207C2A10EBE08E87E00BE
:0108A800222D
:0A09FE00EF24FF92A0D2A1C2A122B3
:0B09DE00D2A0D2A1A2A0E433FFC2A16E
:0109E90022EB
:10000300EC4D6011E8497017ED33EC3304600DE4F7
:10001300FCFFFEFD22E933E8330470F80202DD122F
:1000230002A858046009E4CC248150062850090230
:1000330002E72840030202E4C0E0EB4A7044B980BF
:1000430006D0E0FB0202D3EF4E701CBD8008EBFF2D
:10005300EAFEE9FD80EBE98DF0A4FEE5F00200EC99
:10006300E9CDF9EAFEEBFFEF89F0A4FCE5F0CE89D8
:10007300F0A42EFFE435F0CD89F0A42DFEE435F095
:100083008067EF4E7005BD80D780C3EF8BF0A4ACC3
:10009300F0EE8BF0A42CFCE435F0F8EF8AF0A42CFE
:1000A300E5F038FCE433CB8DF0A42CFCE5F03BF811
:1000B300EE8AF0A42CFCE5F038F8E433CF89F0A401
:1000C3002CFCE5F038CF3400CE89F0A42FFFE5F007
:1000D3003EFEE433C98DF0A42EFEE5F039CD8AF05F
:1000E300A42FFFE5F03EFEE43DFD33D0E0FB5007D7
:1000F3000BBB000F0202E7EC2CFCEF33FFEE33FEE9
:06010300ED33FD0202BF16
:100109000202E7EC5D046005E8590470030202DDB0
:100119001202A8580460F6EC4860F2EC7004FDFE87
:10012900FF22C860DB2481C85009C39860025006C9
:100139000202E49850CAF582E9294B4A7005AB825C
:100149000202D375F0007C1A7880C3EF9BEE9AED1A
:1001590099400DC3EF9BFFEE9AFEED99FDE842F041
:10016900DC23ACF0D0E0FFD0E0FED0E0FDAB822094
:10017900E7101BEB60BAEC2CFCEF33FFEE33FEED1E
:1001890033FD0202BFE803F830E705C0F075F0005F
:10019900EF2FFFEE33FEED33FD40B830E7C280AA02
:1001A90074F8CC6480CCC86480C8F58204604FC3FD
:1001B900EB9FF5F0EA9E42F0E99D42F0E89C45F09C
:1001C900603C501DE5825FFFE582D313CB5BCBF426
:1001D9002B5582FB50280ABA002409B9002008804F
:1001E9001DE5825BFBE582D313CF5FCFF4C3132FE9
:1001F9005582FF50090EBE00050DBD00010CC3EB71
:100209009FF5F0EA9E42F0E99D42F0E89C45F060D6
:0902190007CC4820E701B3EC22F8
:10022200ED33EC33600A047003BD8004ECB2E7FCEA
:0102320022A9
:1002330075F020800E75F010800575F0087D007E46
:10024300007F003392D530D503120454EC334010B1
:10025300EF33FFEE33FEED33FDEC33FCD5F0ED224F
:0E026300E5F0247EA2D513CC92E7CDCEFF228B
:10027100EDD2E7CD33EC3392D524814006E4FFFE85
:10028100FDFC22FCE4CFCECDCC24E0501174FF80E4
:10029100EDC3CC13CCCD13CDCE13CECF13CF047081
:0702A100F030D5DE02045429
:1002A800E9D2E7C933E833F892D5EDD2E7CD33EC9C
:0702B80033FC5002B2D52215
:1002BF00EC30E7100FBF000C0EBE00080DBD0004A0
:1002CF000BEB6014A2D5EB13FCED92E7FD2274FF4C
:1002DF00FCFDFEFF22E480F8A2D574FF13FC7D80A5
:0302EF00E480EFB9
:1002F200BB010CE58229F582E5833AF583E02250C1
:1003020006E92582F8E622BBFE06E92582F8E2220A
:0D031200E58229F582E5833AF583E4932224
:10031F00EF8DF0A4A8F0CF8CF0A428CE8DF0A42EF2
:02032F00FE22AC
:10033100BC000BBE0029EF8DF084FFADF022E4CCB0
:10034100F875F008EF2FFFEE33FEEC33FCEE9DEC79
:10035100984005FCEE9DFE0FD5F0E9E4CEFD22EDBF
:10036100F8F5F0EE8420D21CFEADF075F008EF2F09
:10037100FFED33FD4007985006D5F0F222C398FDFA
:050381000FD5F0EA2297
:1003860075F008758200EF2FFFEE33FECD33CDCC2E
:1003960033CCC58233C5829BED9AEC99E5829840B1
:1003A6000CF582EE9BFEED9AFDEC99FC0FD5F0D68E
:1003B600E4CEFBE4CDFAE4CCF9A88222B800C1B9B8
:1003C6000059BA002DEC8BF084CFCECDFCE5F0CBF6
:1003D600F97818EF2FFFEE33FEED33FDEC33FCEB2F
:1003E60033FB10D703994004EB99FB0FD8E5E4F9EA
:1003F600FA227818EF2FFFEE33FEED33FDEC33FCD7
:10040600C933C910D7059BE99A4007EC9BFCE99ACA
:10041600F90FD8E0E4C9FAE4CCFB2275F010EF2F0F
:10042600FFEE33FEED33FDCC33CCC833C810D7070F
:100436009BEC9AE899400AED9BFDEC9AFCE899F84A
:0E0446000FD5F0DAE4CDFBE4CCFAE4C8F922DD
:0E045400C3E49FFFE49EFEE49DFDE49CFC22B9
:00000001FF
