:0300000002000EED
:0C000E00787FE4F6D8FD758120020055D3
:100167001201E81201068F1EE51E64017023051FA8
:10017700531F03E51F7002F51DE51FB40103751D2D
:1001870032E51FB40203751D4BE51FB40303751D4C
:0F01970064E51FFD7C007F017E0012009A80C48A
:03000B000201A649
:1001A600C0E0C0F0C0D0758CFF758AA4051CE51CA4
:1001B60075F0648485F01CE51CC3951D5004D2902F
:0B01C6008002C290D0D0D0F0D0E03218
:10010600E4F52020B1137F14FE1201FF30B1FD7F0C
:10011600147E001201FF75200120B0147F147E00AA
:100126001201FF30B0FD7F147E001201FF75200220
:1001360020B2147F147E001201FF30B2FD7F147EC0
:10014600001201FF75200320B3147F147E001201F4
:10015600FF30B3FD7F147E001201FF752004AF202F
:010166002276
:1001D1001408003F0006005B004F0066006D007DC3
:0601E1000007007F006F23
:10009A00EE705BEF14B4080050549000B275F00390
:1000AA00A4C58325F0C583730200CA0200CE0200EC
:1000BA00D20200D60200DA0200E20200EA0200F2EC
:1000CA00D2A4800ED2A48012D2A48016D2A4801AFE
:1000DA00C2A4D2A3D2A28016C2A4D2A3C2A2800E64
:1000EA00C2A4C2A3D2A28006C2A4C2A3C2A2ED2500
:0C00FA00E02408F808E6F580E4F5802218
:1001E8005389F0438901C28DD28C758CFF758AA41E
:0701F800D2A9D2AFC2B92267
:1001FF00EF4E600F7D027CC7DCFEDDFCEF1F70F061
:03020F001E80ED61
:0102120022C9
:10001A00020167E493A3F8E493A34003F68001F294
:10002A0008DFF48029E493A3F85407240CC8C333E7
:10003A00C4540F4420C8834004F456800146F6DFB6
:10004A00E4800B01020408102040809001D1E47E74
:10005A00019360BCA3FF543F30E509541FFEE493AB
:10006A00A360010ECF54C025E060A840B8E493A372
:10007A00FAE493A3F8E493A3C8C582C8CAC583CA9D
:10008A00F0A3C8C582C8CAC583CADFE9DEE780BE55
:0101E7000017
:00000001FF
