:0300000002024FAA
:0C024F00787FE4F6D8FD7581230201756C
:0C025B0048656C6C6F20776F726C64005B
:100175001202187BFF7A02795B7D017F011201A4CF
:100185000509E509700205087FE87E0312022C7552
:0F0195000E03AB09AA087D017F021201E580E18C
:06024000C2A58F80D2A7C9
:080246007F027EEFDEFEDFFC0B
:01024E00228D
:0A026700C2A6120240C2A70202461E
:1001C700CFCDCFCECCCE1200427C007D0A120042AA
:0401D700ED2430FFE4
:0A01DB00D2A6120240C2A70202469B
:10020200AE07BE0104ED148006BE0209ED243F4490
:0602120080FF12026722CA
:100218007F381202677F0C1202677F061202677F1F
:040228000102026766
:0A027100AC03120202AF040201DB2D
:0601A4008B0A8A0B890C96
:1001AA00120202E4FDAB0AAA0BA90C8D8275830028
:0C01BA00120003FF60061201DB0D80E95B
:0101C6002216
:0C0142007F0AEA24FFFDE434FFFC7E008D
:08014E008E0F8F108C118D1231
:100156007F017E00E4FBEBC39512E5116480F87421
:0E0166008098500AAC0FAD101200300B80E8EC
:010174002268
:0401E5008A0C8B0DE8
:1001E900120202AA0EEAD39400400D120142AC0C8D
:0801F900AD0D1201C71A80EDE3
:0102010022DA
:10009700120202C3EA64809480400B7F2B1201DBBB
:1000A7008A188B19800E7F2D1201DBC3E49BF5198B
:1000B700E49AF518AA17EAD39400400D120142AC4E
:0900C70018AD191201C71A80EDF1
:0100D000220D
:0400D1008A1C8B1DDD
:1000D500120202AA1EEAD3940040297F101201449D
:1000E500AC1CAD1DCFCDCFCECCCE120042EF540F00
:1000F500FEC3940AEE5004243080022437FF120117
:04010500DB1A80D1B0
:0101090022D3
:04010A008A218B2299
:10010E00120202AA23EAD394004028EA24FFFDE457
:10011E0034FFFC7F027E0012014EAC21AD22CFCD0A
:10012E00CFCECCCE120042EF54012430FF1201DBB1
:03013E001A80D252
:01014100229B
:10022C00EF4E600F7D027CC7DCFEDDFCEF1F70F033
:03023C001E80ED34
:01023F00229C
:10000300BB010CE58229F582E5833AF583E02250B2
:1000130006E92582F8E622BBFE06E92582F8E222FC
:0D002300E58229F582E5833AF583E4932216
:10003000EF8DF0A4A8F0CF8CF0A428CE8DF0A42EE4
:02004000FE229E
:10004200BC000BBE0029EF8DF084FFADF022E4CCA2
:10005200F875F008EF2FFFEE33FEEC33FCEE9DEC6B
:10006200984005FCEE9DFE0FD5F0E9E4CEFD22EDB1
:10007200F8F5F0EE8420D21CFEADF075F008EF2FFB
:10008200FFED33FD4007985006D5F0F222C398FDEC
:050092000FD5F0EA2289
:00000001FF
