:030000000200BF3C
:0C00BF00787FE4F6D8FD75810A0200038A
:10003F000000000000000000C03C033C3C033CC03B
:10004F0000FF8181423C00FF80601E01FF00FFC066
:10005F00300C020C30C0FF00FF8181423C000000D9
:08006F00000000000000000089
:10000300E4F508F509F50A1200CBE4F508E508253F
:100013000990003F93FD7C00AF081200A40508E59A
:1000230008C3940840E7050AE50AB432DDE4F50A9B
:0C0033000509E509B430D3E4F50980CEDE
:02007700AD07D3
:10007900E4FB74807E00A803088006CEA2E713CEB5
:1000890013D8F8FFEDF582EF558224FF92B4D2B66A
:0A009900C2B60BBB08DCD2B5C2B53D
:0100A300223A
:1000A400AA07AF05120077AF027480A80708800280
:0B00B400C313D8FCF4F5807580FF2218
:0500CB00C2B6C2B5221F
:00000001FF
