:0300000002000EED
:0C000E00787FE4F6D8FD75810C020055E7
:0400030002080000EF
:10014E0075A0FE12016C12009A8F0BE50B60F7B4CE
:0E015E0001F4050AE50AB402EDE4F50A80E8B2
:03000B000200FBF5
:0B00FB00C0E0C0D075D000C000C007FE
:10010600758CFC758A660509E5097002050864F4B4
:100116007004E50864017027F508F509E50A700D15
:10012600AFA07801EF08800123D8FDF5A0E50AB459
:0F013600010DAFA07801EF08800103D8FDF5A0FF
:09014500D007D000D0D0D0E03288
:10016C005389F0438901C28DD28C758CFC758A66DB
:07017C00D2A9D2AFC2B922E3
:10009A00E4F50C20B1137F14FE12018330B1FD7F09
:1000AA00147E00120183750C0120B0147F147E00A7
:1000BA0012018330B0FD7F147E00120183750C0299
:1000CA0020B2147F147E0012018330B2FD7F147EA9
:1000DA0000120183750C0320B3147F147E001201F1
:1000EA008330B3FD7F147E00120183750C04AF0CBC
:0100FA0022E3
:10018300EF4E600F7D027CC7DCFEDDFCEF1F70F0DD
:030193001E80EDDE
:010196002246
:10001A0002014EE493A3F8E493A34003F68001F2AD
:10002A0008DFF48029E493A3F85407240CC8C333E7
:10003A00C4540F4420C8834004F456800146F6DFB6
:10004A00E4800B0102040810204080900003E47E43
:10005A00019360BCA3FF543F30E509541FFEE493AB
:10006A00A360010ECF54C025E060A840B8E493A372
:10007A00FAE493A3F8E493A3C8C582C8CAC583CA9D
:10008A00F0A3C8C582C8CAC583CADFE9DEE780BE55
:0100070000F8
:00000001FF
