:040D1D00021C0000B4
:100B1100120B9B120C5B7517017B62E4FDFF12093E
:100B2100387517017B697D08E4FF120938751701D3
:100B31007B6C7D10E4FF1209387517017B697D1804
:100B4100E4FF1209387517017B627D20E4FF120969
:100B5100387517017B697D28E4FF12093875170183
:100B61007B6C7D30E4FF1209387517017B697D3894
:100B7100E4FF120938E4851D0D851C0CF50BF50AFF
:100B8100750E08750F017510017D287F041209F19A
:0A0B9100051DE51D70DF051C80DB6B
:090D0D00D291D290C291C2902251
:070D1600C291D290D291229C
:100CD000C290E4FEAD07530580BD8004D29180022E
:0E0CE000C291EF25E0FFD290C2900EBE08E652
:010CEE0022E3
:050D2200D290C29022F6
:1000030000000000000000000000000000000000ED
:10001300000000F800000000000000333000000082
:1000230000100C06100C0600000000000000000089
:1000330040C07840C0784000043F04043F040400FB
:10004300007088FC08300000001820FF211E00000B
:10005300F008F000E018000000211C031E211E0020
:1000630000F00888700000001E21232419272110A6
:1000730010160E0000000000000000000000000049
:10008300000000E0180402000000000718204000F0
:1000930000020418E00000000040201807000000E0
:1000A300404080F0804040000202010F0102020044
:1000B300000000F0000000000101011F0101010028
:1000C300000000000000000080B07000000000008D
:1000D3000000000000000000000101010101010116
:1000E30000000000000000000030300000000000AD
:1000F3000000000080601804006018060100000082
:1001030000E010080810E000000F102020100F007E
:10011300001010F8000000000020203F2020000005
:10012300007008080888700000302824222130005D
:1001330000300888884830000018202020110E0065
:100143000000C02010F8000000070424243F24000E
:1001530000F80888880808000019212020110E00E3
:1001630000E0108888180000000F112020110E00F5
:1001730000380808C83808000000003F00000000ED
:100183000070880808887000001C222121221C00AE
:1001930000E010080810E0000000312222110F00D7
:1001A300000000C0C000000000000030300000006C
:1001B30000000080000000000000806000000000DC
:1001C30000008040201008000001020408102000F5
:1001D3004040404040404000040404040404040040
:1001E30000081020408000000020100804020100D5
:1001F300007048080808F0000000003036010000D5
:10020300C030C828E810E0000718272423140B0087
:100213000000C038E0000000203C23020227382001
:1002230008F8888888700000203F202020110E00E5
:10023300C0300808080838000718202020100800DC
:1002430008F808080810E000203F202020100F00C5
:1002530008F88888E8081000203F20202320180091
:1002630008F88888E8081000203F200003000000F9
:10027300C03008080838000007182020221E02009A
:1002830008F808000008F808203F210101213F2059
:10029300000808F8080800000020203F2020000084
:1002A30000000808F8080800C08080807F00000074
:1002B30008F888C028180800203F200126382000AD
:1002C30008F8080000000000203F20202020300014
:1002D30008F8F800F8F80800203F003F003F20002E
:1002E30008F830C00008F808203F200007183F0036
:1002F300E01008080810E0000F10202020100F0065
:1003030008F808080808F000203F21010101000057
:10031300E01008080810E0000F18242438504F009C
:1003230008F8888888887000203F2000030C30205C
:1003330000708808080838000038202121221C009A
:10034300180808F8080818000000203F20000000E3
:1003530008F808000008F808001F202020201F00CC
:100363000878880000C83808000007380E0100002C
:10037300F80800F80008F800033C0700073C0300F6
:10038300081868808068180820302C03032C30205C
:100393000838C800C83808000000203F20000000CB
:1003A30010080808C8380800203826212020180023
:1003B300000000FE020202000000007F40404000F7
:1003C300000C30C000000000000000010638C0002F
:1003D30000020202FE000000004040407F000000D7
:1003E30000000402020204000000000000000000FC
:1003F30000000000000000008080808080808080FA
:1004030000020204000000000000000000000000E1
:1004130000008080808000000019242222223F20D7
:1004230008F8008080000000003F112020110E001A
:100433000000008080800000000E112020201100A9
:10044300000000808088F800000E112020103F205B
:100453000000808080800000001F222222221300DF
:10046300008080F0888888180020203F202000002A
:100473000000808080808000006B949494936000DF
:1004830008F8008080800000203F210000203F20EA
:1004930000809898000000000020203F20200000EA
:1004A300000000809898000000C08080807F0000DA
:1004B30008F8000080808000203F24022D302000B7
:1004C300000808F8000000000020203F2020000062
:1004D3008080808080808000203F20003F20003F7C
:1004E3008080008080800000203F210000203F208A
:1004F3000000808080800000001F202020201F003B
:10050300808000808000000080FFA12020110E0069
:100513000000008080808000000E112020A0FF805A
:10052300808080008080800020203F212000010007
:10053300000080808080800000332424242419005C
:10054300008080E0808000000000001F2020000069
:100553008080000000808000001F202020103F20AA
:10056300808080000080808000010E30080601003A
:1005730080800080008080800F300C030C300F00DF
:1005830000808000808080000020312E0E3120000A
:10059300808080000080808080818E70180601003A
:1005A30000808080808080000021302C2221300058
:1005B30000000000807C020200000000003F404079
:1005C30000000000FF00000000000000FF0000002A
:1005D3000002027C800000000040403F0000000059
:1005E30000060101020204040000000000000000F4
:1005F3000000000000000000002F000000000700C2
:10060300070000147F147F1400242A7F2A1200623B
:1006130064081323003649552250000005030000E7
:1006230000001C224100000041221C000014083E6F
:1006330008140008083E0808000000A06000000835
:100643000808080800006060000000201008040289
:10065300003E5149453E0000427F40000042615147
:100663004946002141454B31001814127F100027E1
:1006730045454539003C4A494930000171090503A4
:1006830000364949493600064949291E00003636D5
:100693000000000056360000000814224100001438
:1006A3001414141400004122140800020151090615
:1006B30000324959513E007C1211127C007F494996
:1006C3004936003E41414122007F4141221C007FC7
:1006D30049494941007F09090901003E4149497AD5
:1006E300007F0808087F0000417F4100002040414F
:1006F3003F01007F08142241007F40404040007FBB
:10070300020C027F007F0408107F003E4141413EFE
:10071300007F09090906003E4151215E007F091946
:1007230029460046494949310001017F0101003F43
:100733004040403F001F2040201F003F4038403FC3
:100743000063140814630007087008070061514927
:10075300454300007F41410000552A552A550000BA
:1007630041417F0000040201020400404040404038
:10077300000001020400002054545478007F4844D0
:10078300443800384444442000384444487F003807
:100793005454541800087E0901020018A4A4A47C30
:1007A300007F080404780000447D400000408084FA
:1007B3007D00007F102844000000417F4000007C42
:1007C30004180478007C080404780038444444384E
:1007D30000FC242424180018242418FC007C08049A
:1007E300040800485454542000043F444020003C73
:1007F3004040207C001C2040201C003C4030403CFA
:10080300004428102844001CA0A0A07C0044645489
:080813004C44141414141414D5
:100CB0008F1B120D0D7F78120CD0120D22E4FF1243
:100CC0000CD0120D22AF1B120CD0120D22020D16E9
:050C8B00F583E493FF76
:100C90008F1A120D0D7F78120CD0120D227F401288
:100CA0000CD0120D22AF1A120CD0120D22020D160A
:100CEF008F1AED24B0FF120CB0E51A54F0C4540F54
:0E0CFF004410FF120CB0E51A540FFF020CB0A7
:100C5B00E4F508E50824B0FF120CB0E4FF120CB069
:100C6B007F10120CB0E4F509E4FF120C900509E5B6
:0F0C7B0009C3948040F20508E508C3940840D4EB
:010C8A002247
:040938008F148D1576
:10093C00E4F518F519EB24E0F518E515D3947F4090
:10094C0007E4F51505140514E51764027061AD1480
:10095C00AF15120CEFE4F51975F010E518A4251974
:10096C00F582E435F0F583E5822403F582E58334E2
:10097C0000120C8B0519E519C3940840DBE514042F
:10098C00FDAF15120CEFE4F51975F010E518A42560
:10099C0019F582E435F0F583E582240BF582E583C5
:1009AC003400120C8B0519E519C3940840DB22E5C1
:1009BC00176401702FAD14AF15120CEFE4F5197517
:1009CC00F006E518A424F3F582E5F03405F583E58B
:1009DC00822519F582E43583120C8B0519E519C3B0
:0409EC00940640DB52
:0109F00022E4
:040C22008F148D1589
:100C2600E4751901F518F517F516AF151515EF60EA
:100C36001BAB19AA18A917A816AF14E4FCFDFE12DF
:100C4600081B8F198E188D178C1680DEAF19AE18FB
:040C5600AD17AC1614
:010C5A002277
:0409F1008F088D09D5
:1009F500E4F513F511E511C3950E4003020A84C30E
:100A0500E50E951114FD7F0A120C22A804A905AA6A
:100A150006AB07AF0DAE0CAD0BAC0A1208A6E47B16
:100A25000AFAF9F81208A6AF038F12E5137035E537
:100A35000E14FFE511C39F502BE5127024E50F70CE
:100A450010E51175F008A42509FD8510177B208098
:100A550024E51175F008A42509FD8510177B308064
:100A650014751301E51175F008A42509FDE5122497
:0F0A750030FB851017AF0812093805110209FA76
:010A8400224F
:100B9B007FAE120CB0E4FF120CB07F10120CB07FC2
:100BAB0040120CB07FB0120CB07F81120CB07FFFE3
:100BBB00120CB07FA1120CB07FA6120CB07FA81242
:100BCB000CB07F3F120CB07FC8120CB07FD3120C4D
:100BDB00B0E4FF120CB07FD5120CB07F80120CB0BA
:100BEB007FD8120CB07F05120CB07FD9120CB07FDE
:100BFB00F1120CB07FDA120CB07F12120CB07FDB4B
:100C0B00120CB07F30120CB07F8D120CB07F14120F
:070C1B000CB07FAF020CB02A
:03000000020A856C
:0C0A8500787FE4F6D8FD75811D020ACCD4
:10081B00E88FF0A4CC8BF0A42CFCE98EF0A42CFC7C
:10082B008AF0EDA42CFCEA8EF0A4CDA8F08BF0A4FA
:10083B002DCC3825F0FDE98FF0A42CCD35F0FCEB59
:10084B008EF0A4FEA9F0EB8FF0A4CFC5F02ECD391E
:0F085B00FEE43CFCEAA42DCE35F0FDE43CFC228B
:10086A0075F008758200EF2FFFEE33FECD33CDCC45
:10087A0033CCC58233C5829BED9AEC99E5829840C8
:10088A000CF582EE9BFEED9AFDEC99FC0FD5F0D6A5
:10089A00E4CEFBE4CDFAE4CCF9A88222B800C1B9CF
:1008AA000059BA002DEC8BF084CFCECDFCE5F0CB0D
:1008BA00F97818EF2FFFEE33FEED33FDEC33FCEB46
:1008CA0033FB10D703994004EB99FB0FD8E5E4F901
:1008DA00FA227818EF2FFFEE33FEED33FDEC33FCEE
:1008EA00C933C910D7059BE99A4007EC9BFCE99AE2
:1008FA00F90FD8E0E4C9FAE4CCFB2275F010EF2F27
:10090A00FFEE33FEED33FDCC33CCC833C810D70726
:10091A009BEC9AE899400AED9BFDEC9AFCE899F861
:0E092A000FD5F0DAE4CDFBE4CCFAE4C8F922F4
:100A9100020B11E493A3F8E493A34003F68001F25F
:100AA10008DFF48029E493A3F85407240CC8C33366
:100AB100C4540F4420C8834004F456800146F6DF35
:100AC100E4800B0102040810204080900D1DE47E9B
:100AD100019360BCA3FF543F30E509541FFEE4932A
:100AE100A360010ECF54C025E060A840B8E493A3F1
:100AF100FAE493A3F8E493A3C8C582C8CAC583CA1C
:100B0100F0A3C8C582C8CAC583CADFE9DEE780BED3
:010D210000D1
:00000001FF
