:03000000020418DF
:0C041800787FE4F6D8FD75812402000313
:1003B0005772697465204F4B002020202020202098
:0B03C000200052656164204F4B2000BC
:100003001203F5750C05AB23AA227D017F011203B0
:10001300931201768F24E524B401150523E523709B
:10002300020522750C05FBAA227D017F01120393B1
:10003300E524B40216E523152370021522750C0579
:10004300AB23AA227D017F01120393E5246403708D
:1000530040FCAD23FF12030E7F057E001203E1E592
:1000630022FD7C007F0112030E7F057E001203E157
:100073007BFF7A0379B07D017F021203327FE87E32
:10008300031203E17BFF7A0379B97D017F02120337
:1000930032E52464046003020014FF1202B57522E2
:1000A300008F237F011202B5EFFEEE4222750C058D
:1000B300AB23AA227D017F011203937BFF7A03798D
:1000C300C27D017F021203327FE87E031203E17BCC
:0F00D300FF7A0379B97D017F0212033202001414
:1003E100EF4E600F7D027CC7DCFEDDFCEF1F70F07D
:0303F1001E80ED7E
:0103F40022E6
:10017600E4F50820B1137F14FE1203E130B1FD7FD0
:10018600147E001203E175080120B0147F147E006E
:100196001203E130B0FD7F147E001203E175080200
:1001A60020B2147F147E001203E130B2FD7F147E6C
:1001B600001203E175080320B3147F147E001203B6
:1001C600E130B3FD7F147E001203E1750804AF0829
:0101D6002206
:06040900C2A58F80D2A7FE
:08040F007F027EC7DEFEDFFC68
:0104170022C2
:0A043000C2A6120409C2A702040FBD
:10037500CFCDCFCECCCE1201217C007D0A1201213A
:04038500ED2430FF34
:0A038900D2A6120409C2A702040F55
:1003CB00AE07BE0104ED148006BE0209ED243F44C6
:0603DB0080FF1204302235
:1003F5007F381204307F0C1204307F061204307FE0
:0404050001020430BC
:0A043A00AC031203CBAF04020389E8
:060332008B088A09890A0C
:100338001203CBE4FDAB08AA09A90A8D82758300D4
:0C0348001200E2FF60061203890D80E93C
:010354002286
:0C0282007F0AEA24FFFDE434FFFC7E004C
:08028E008E0D8F0E8C0F8D10F8
:100296007F017E00E4FBEBC39510E50F6480F874E4
:0E02A6008098500AAC0DAD0E12010F0B80E8CF
:0102B4002227
:040393008A0A8B0B3C
:100397001203CBAA0CEAD39400400D120282AC0AD6
:0803A700AD0B1203751A80ED85
:0103AF00222B
:1001D7001203CBC3EA64809480400B7F2B12038900
:1001E7008A168B17800E7F2D120389C3E49BF517A0
:1001F700E49AF516AA15EAD39400400D120282ACD0
:0902070016AD171203751A80ED03
:0102100022CB
:040211008A1A8B1B9F
:100215001203CBAA1CEAD3940040297F1012028452
:10022500AC1AAD1BCFCDCFCECCCE120121EF540FE2
:10023500FEC3940AEE5004243080022437FF1203D3
:04024500891A80D1C1
:010249002292
:04024A008A1F8B205C
:10024E001203CBAA21EAD394004028EA24FFFDE44E
:10025E0034FFFC7F027E0012028EAC1FAD20CFCD8C
:10026E00CFCECCCE120121EF54012430FF120389E0
:03027E001A80D211
:01028100225A
:09044E00D2A0D2A1C2A0C2A122D9
:07045700C2A0D2A1D2A02235
:0202E500AD0763
:1002E700E4FB74807E00A803088006CEA2E713CE45
:1002F70013D8F8FFEDF582EF558224FF92A0D2A123
:06030700C2A10BBB08DCE3
:01030D0022CD
:10035500E4FFD2A0FED2A130A00D7480A8060880CB
:0F03650002C313D8FC4207C2A10EBE08E87E00F7
:010374002266
:0A044400EF24FF92A0D2A1C2A12272
:0B042400D2A0D2A1A2A0E433FFC2A12D
:01042F0022AA
:10030E008F088C098D0A12044E7FA01202E512048A
:10031E0024AF081202E5120424AF0A1202E51204F9
:04032E00240204574A
:0202B5008F08B0
:1002B70012044E7FA01202E5120424AF081202E5D1
:1002C70012042412044E7FA11202E5120424120321
:0D02D700558F097F01120444120457AF092E
:0102E40022F7
:1000E200BB010CE58229F582E5833AF583E02250D3
:1000F20006E92582F8E622BBFE06E92582F8E2221D
:0D010200E58229F582E5833AF583E4932236
:10010F00EF8DF0A4A8F0CF8CF0A428CE8DF0A42E04
:02011F00FE22BE
:10012100BC000BBE0029EF8DF084FFADF022E4CCC2
:10013100F875F008EF2FFFEE33FEEC33FCEE9DEC8B
:10014100984005FCEE9DFE0FD5F0E9E4CEFD22EDD1
:10015100F8F5F0EE8420D21CFEADF075F008EF2F1B
:10016100FFED33FD4007985006D5F0F222C398FD0C
:050171000FD5F0EA22A9
:00000001FF
