:0300000002000EED
:0C000E00787FE4F6D8FD75811F020055D4
:06018200011D04011C0137
:100157001201A112009A8F1EE51E60F7B4010B056C
:100167001DE51D75F0058485F01DE51EB402E41537
:0B0177001DE51DB4FFDD751D0480D8E0
:03000B000200FBF5
:0F00FB00C0E0C0D075D000C000C004C005C00771
:10010A00E51C6401701CE51D25E02408F8E6FC08DE
:10011A00E6FDECF58CAF05EF04F58AD280751C007C
:10012A00801EE51C701AE51D25E02412F8E6FC087D
:10013A00E6FDECF58CAF05EF04F58AC280751C016B
:0D014A00D007D005D004D000D0D0D0E032D6
:100188000A08FE32FC65FA99F8CCF6FE0A12B9CCD8
:08019800BB99BD65BF32C0FE3A
:1001A1005389F0438901C28DD28C758CFC758A66A6
:0701B100D2A9D2AFC2B922AE
:1001B800EF4E600F7D027CC7DCFEDDFCEF1F70F0A8
:0301C8001E80EDA9
:0101CB002211
:10009A00E4F51F20B1137F14FE1201B830B1FD7FC1
:1000AA00147E001201B8751F0120B0147F147E005F
:1000BA001201B830B0FD7F147E001201B8751F021C
:1000CA0020B2147F147E001201B830B2FD7F147E74
:1000DA00001201B8751F0320B3147F147E001201A9
:1000EA00B830B3FD7F147E001201B8751F04AF1F2C
:0100FA0022E3
:10001A00020157E493A3F8E493A34003F68001F2A4
:10002A0008DFF48029E493A3F85407240CC8C333E7
:10003A00C4540F4420C8834004F456800146F6DFB6
:10004A00E4800B0102040810204080900182E47EC3
:10005A00019360BCA3FF543F30E509541FFEE493AB
:10006A00A360010ECF54C025E060A840B8E493A372
:10007A00FAE493A3F8E493A3C8C582C8CAC583CA9D
:10008A00F0A3C8C582C8CAC583CADFE9DEE780BE55
:0101A000005E
:00000001FF
