:030000000205DC1A
:0C05DC00787FE4F6D8FD75812F0206231D
:1009C300205F005F0020202D20202D20202D2000DF
:0909D30020203A20203A202000E7
:040A5500022000007B
:1006680012054FE519FB3395E0FA750D027D017F00
:10067800011209A6E51AFB3395E0FA750D027D040F
:100688007F011209A6E51BFB3395E0FA750D027D83
:10069800077F011209A6E51CFB3395E0FA750D02E8
:1006A8007D017F021209A6E51DFB3395E0FA750D61
:1006B800027D047F021209A6E51EFB3395E0FA7558
:1006C8000D027D077F021209A6E51FFB3395E0FAAC
:0A06D800750D017D0A7F010209A6DD
:10000E00E525B4020B0524E52475F0078485F0245C
:10001E00E525640360030200F474192524F806D361
:10002E00E519648094E34003E4F519D3E51A64807E
:10003E00948C4003751A01E51A64016023E51A6475
:10004E0003601DE51A64056017E51A64076011E583
:10005E001A6408600BE51A640A6005E51AB40C0B05
:10006E00D3E51B6480949F404D8048E51A6404607C
:10007E0011E51A6406600BE51A64096005E51AB409
:10008E000B0BD3E51B6480949E402B8026E51AB49F
:10009E000224E51975F004120499AFF0EF700BD33A
:1000AE00E51B6480949D400E8009D3E51B6480940B
:1000BE009C4003751B01D3E51C648094974003E4B8
:1000CE00F51CD3E51D648094BB4003E4F51DD3E518
:1000DE001E648094BB4003E4F51ED3E51F64809438
:1000EE00874003751F01E525640460030201FB745C
:1000FE00192524F816C3E5196480948050037519E8
:10010E0063C3E51A648094815003751A0CE51A6472
:10011E00016023E51A6403601DE51A64056017E5A6
:10012E001A64076011E51A6408600BE51A640A6028
:10013E0005E51AB40C17C3E51B6480948150037552
:10014E001B1FD3E51B6480949F4072806DE51A647B
:10015E00046011E51A6406600BE51A64096005E592
:10016E001AB40B17C3E51B648094815003751B1ED4
:10017E00D3E51B6480949E4044803FE51A64027070
:10018E003CE51975F004120499AFF0EF7017C3E552
:10019E001B648094815003751B1DD3E51B648094F2
:1001AE009D401A8015C3E51B648094815003751B16
:1001BE001CD3E51B6480949C4003751B01C3E51C96
:1001CE00648094805003751C17C3E51D6480948071
:1001DE005003751D3BC3E51E648094805003751E4D
:1001EE003BC3E51F648094815003751F07E523B45C
:1001FE000113E524700F7BFF7A0979C37D017F011E
:10020E001209658011E519FB3395E0FA750D027D33
:10021E00017F011209A6E523B40114E524B4010FF0
:10022E007BFF7A0979C37D047F011209658011E590
:10023E001AFB3395E0FA750D027D047F011209A6B3
:10024E00E523B40114E524B4020F7BFF7A0979C3C8
:10025E007D077F011209658011E51BFB3395E0FADE
:10026E00750D027D077F011209A6E523B40114E581
:10027E0024B4030F7BFF7A0979C37D017F02120933
:10028E00658011E51CFB3395E0FA750D027D017F4B
:10029E00021209A6E523B40114E524B4040F7BFF72
:1002AE007A0979C37D047F021209658011E51DFB71
:1002BE003395E0FA750D027D047F021209A6E5233F
:1002CE00B40114E524B4050F7BFF7A0979C37D07C9
:1002DE007F021209658011E51EFB3395E0FA750D5C
:1002EE00027D077F021209A6E523B40112E524B4AC
:1002FE00060D7BFF7A0979C67D0A7F01020965E545
:10030E001FFB3395E0FA750D017D0A7F011209A6D8
:01031E0022BC
:10079F00120A1E1200031209DC12031F7BFF7A09D3
:1007AF0079C87D017F011209657BFF7A0979D37DB5
:1007BF00017F021209651206E28F25E525B4010DAE
:1007CF000508E508B40206E4F50812031FE508144E
:1007DF006008047008120668800312000EE51D7091
:0A07EF00D5E51E70D175220880CCFC
:03000B00020847A1
:09084700C0E0C0D075D000C0076C
:10085000758CFC758A660521E52170020520B4F4CB
:100860001FE520B4011A752000752100E5237004EE
:100870007F0180027F008F23E5226004B2A0152251
:07088000D007D0D0D0E03218
:060A4600C2A58F80D2A7BB
:080A4C007F027EC7DEFEDFFC25
:010A5400227F
:0A0A6300C2A6120A46C2A7020A4CFE
:10098800CFCDCFCECCCE1204FA7C007D0A1204FA69
:04099800ED2430FF1B
:0A099C00D2A6120A46C2A7020A4CB6
:1009F300AE07BE0104ED148006BE0209ED243F4498
:060A030080FF120A6322CD
:100A1E007F38120A637F0C120A637F06120A637F05
:040A2E0001020A6354
:0A0A6D00AC031209F3AF0402099C68
:060965008B098A0A890BD0
:10096B001209F3E4FDAB09AA0AA90B8D827583006A
:0C097B001204BBFF600612099C0D80E90D
:01098700224D
:0C0932007F0AEA24FFFDE434FFFC7E0095
:08093E008E0E8F0F8C108D113D
:100946007F017E00E4FBEBC39511E5106480F8742B
:0E0956008098500AAC0EAD0F1204E80B80E83A
:010964002270
:0409A6008A0B8B0C21
:1009AA001209F3AA0DEAD39400400D120932AC0BD6
:0809BA00AD0C1209881A80ED52
:0109C2002212
:100887001209F3C3EA64809480400B7F2B12099C02
:100897008A178B18800E7F2D12099CC3E49BF518CD
:1008A700E49AF517AA16EAD39400400D120932AC60
:0908B70017AD181209881A80ED32
:0108C0002215
:0408C1008A288B29CD
:1008C5001209F3AA2AEAD3940040297F10120934A9
:1008D500AC28AD29CFCDCFCECCCE1204FAEF540F34
:1008E500FEC3940AEE5004243080022437FF120917
:0408F5009C1A80D1F8
:0108F90022DC
:0408FA008A2D8B2E8A
:1008FE001209F3AA2FEAD394004028EA24FFFDE45C
:10090E0034FFFC7F027E0012093EAC2DAD2ECFCD02
:10091E00CFCECCCE1204FAEF54012430FF12099C34
:03092E001A80D25A
:0109310022A3
:090A59000719150C11083B3705C3
:05000300C2B6C2B522E7
:050743002DFDEE3CFC61
:060748008C098D0AAB07CD
:10074E00D2B5E4FD74017E00A805088005C333CE42
:10075E0033CED8F9FFEBF582EF558224FF92B4D257
:10076E00B6C2B60DBD08DDE4FD74017E00A8050815
:10077E008005C333CE33CED8F9FFE5095EFEE50A18
:10078E005F4E24FF92B4D2B6C2B60DBD08DBC2B521
:01079E002238
:0207F900AD074A
:1007FB00E4F9430501D2B5FB74017E00A803088020
:10080B0005C333CE33CED8F9FFEDF582EF558224F5
:10081B00FF92B4C2B6D2B60BBB08DDE4FBD2B6C2B4
:10082B00B630B40D7401A803088002C333D8FC4260
:0B083B00010BBB08E8C2B5C2B4AF015E
:01084600228F
:10031F00E4FDFC7F8E120748E51975F00A12049967
:10032F00FF3395E0FEEFC4F8540FC868FFEEC454D6
:10033F00F048FEE51975F00A120499ADF0ED33950A
:10034F00E0FCEF7F8C120743E51A75F00A1204994F
:10035F00FF3395E0FEEFC4F8540FC868FFEEC454A6
:10036F00F048FEE51A75F00A120499ADF0ED3395D9
:10037F00E0FCEF7F88120743E51B75F00A12049922
:10038F00FF3395E0FEEFC4F8540FC868FFEEC45476
:10039F00F048FEE51B75F00A120499ADF0ED3395A8
:1003AF00E0FCEF2DFDEE3CFC7F86120748E51C7547
:1003BF00F00A120499FF3395E0FEEFC4F8540FC80A
:1003CF0068FFEEC454F048FEE51C75F00A1204995C
:1003DF00ADF0ED3395E0FCEF2DFDEE3CFC7F84128C
:1003EF000748E51D75F00A120499FF3395E0FEEFFB
:1003FF00C4F8540FC868FFEEC454F048FEE51D75ED
:10040F00F00A120499ADF0ED3395E0FCEF2DFDEEFF
:10041F003CFC7F82120748E51E75F00A120499FF13
:10042F003395E0FEEFC4F8540FC868FFEEC454F0E4
:10043F0048FEE51E75F00A120499ADF0ED3395E014
:10044F00FCEF2DFDEE3CFC7F80120748E51F75F099
:10045F000A120499FF3395E0FEEFC4F8540FC868F1
:10046F00FFEEC454F048FEE51F75F00A120499AD73
:10047F00F0ED3395E0FCEF2DFDEE3CFC7F8A12078B
:0A048F00487D807C007F8E02074844
:10054F007F8C1207F9EFC4540F75F00AA4FEEF5415
:10055F000F2EF5197F881207F9EFC4540F75F00AA3
:10056F00A4FEEF540F2EF51A7F861207F9EFC4542D
:10057F000F75F00AA4FEEF540F2EF51B7F841207A0
:10058F00F9EFC4540F75F00AA4FEEF540F2EF51CAB
:10059F007F821207F9EFC4540F75F00AA4FEEF54CF
:1005AF000F2EF51D7F801207F9EFC4540F75F00A57
:1005BF00A4FEEF540F2EF51E7F8A1207F9EFC454D5
:0C05CF000F75F00AA4FEEF540F2EF51F6C
:0105DB0022FD
:1006E200E4F50920B1137F14FE120A3230B1FD7F06
:1006F200147E00120A3275090120B0147F147E00A4
:10070200120A3230B0FD7F147E00120A32750902DD
:1007120020B2147F147E00120A3230B2FD7F147EA2
:1007220000120A3275090320B3147F147E00120AE4
:100732003230B3FD7F147E00120A32750904AF090C
:010742002294
:100A3200EF4E600F7D027CC7DCFEDDFCEF1F70F025
:030A42001E80ED26
:010A4500228E
:1009DC005389F0438901C28DD28C758CFC758A6663
:0709EC00D2A9D2AFC2B9226B
:100A090053890F438910C28FC28E758DFC758B6611
:050A1900D2ABD2AF22B8
:1005E80002079FE493A3F8E493A34003F68001F283
:1005F80008DFF48029E493A3F85407240CC8C33314
:10060800C4540F4420C8834004F456800146F6DFE2
:10061800E4800B0102040810204080900A55E47E13
:10062800019360BCA3FF543F30E509541FFEE493D7
:10063800A360010ECF54C025E060A840B8E493A39E
:10064800FAE493A3F8E493A3C8C582C8CAC583CAC9
:10065800F0A3C8C582C8CAC583CADFE9DEE780BE81
:010A62000093
:10049900C2D530F707B2D563F0FF05F030E70CB2EB
:1004A900D5F4048463F0FF05F080018430D502F4AB
:0204B90004221B
:1004BB00BB010CE58229F582E5833AF583E02250F6
:1004CB0006E92582F8E622BBFE06E92582F8E22240
:0D04DB00E58229F582E5833AF583E493225A
:1004E800EF8DF0A4A8F0CF8CF0A428CE8DF0A42E28
:0204F800FE22E2
:1004FA00BC000BBE0029EF8DF084FFADF022E4CCE6
:10050A00F875F008EF2FFFEE33FEEC33FCEE9DECAE
:10051A00984005FCEE9DFE0FD5F0E9E4CEFD22EDF4
:10052A00F8F5F0EE8420D21CFEADF075F008EF2F3E
:10053A00FFED33FD4007985006D5F0F222C398FD2F
:05054A000FD5F0EA22CC
:00000001FF
